{
    "contractName": "TimeCapsule",
    "abi": [
        {
            "inputs": [
                {
                    "internalType": "address",
                    "name": "initialOwner",
                    "type": "address"
                }
            ],
            "stateMutability": "nonpayable",
            "type": "constructor"
        },
        {
            "inputs": [
                {
                    "internalType": "address",
                    "name": "sender",
                    "type": "address"
                },
                {
                    "internalType": "uint256",
                    "name": "tokenId",
                    "type": "uint256"
                },
                {
                    "internalType": "address",
                    "name": "owner",
                    "type": "address"
                }
            ],
            "name": "ERC721IncorrectOwner",
            "type": "error"
        },
        {
            "inputs": [
                {
                    "internalType": "address",
                    "name": "operator",
                    "type": "address"
                },
                {
                    "internalType": "uint256",
                    "name": "tokenId",
                    "type": "uint256"
                }
            ],
            "name": "ERC721InsufficientApproval",
            "type": "error"
        },
        {
            "inputs": [
                {
                    "internalType": "address",
                    "name": "approver",
                    "type": "address"
                }
            ],
            "name": "ERC721InvalidApprover",
            "type": "error"
        },
        {
            "inputs": [
                {
                    "internalType": "address",
                    "name": "operator",
                    "type": "address"
                }
            ],
            "name": "ERC721InvalidOperator",
            "type": "error"
        },
        {
            "inputs": [
                {
                    "internalType": "address",
                    "name": "owner",
                    "type": "address"
                }
            ],
            "name": "ERC721InvalidOwner",
            "type": "error"
        },
        {
            "inputs": [
                {
                    "internalType": "address",
                    "name": "receiver",
                    "type": "address"
                }
            ],
            "name": "ERC721InvalidReceiver",
            "type": "error"
        },
        {
            "inputs": [
                {
                    "internalType": "address",
                    "name": "sender",
                    "type": "address"
                }
            ],
            "name": "ERC721InvalidSender",
            "type": "error"
        },
        {
            "inputs": [
                {
                    "internalType": "uint256",
                    "name": "tokenId",
                    "type": "uint256"
                }
            ],
            "name": "ERC721NonexistentToken",
            "type": "error"
        },
        {
            "inputs": [
                {
                    "internalType": "address",
                    "name": "owner",
                    "type": "address"
                }
            ],
            "name": "OwnableInvalidOwner",
            "type": "error"
        },
        {
            "inputs": [
                {
                    "internalType": "address",
                    "name": "account",
                    "type": "address"
                }
            ],
            "name": "OwnableUnauthorizedAccount",
            "type": "error"
        },
        {
            "anonymous": false,
            "inputs": [
                {
                    "indexed": true,
                    "internalType": "address",
                    "name": "owner",
                    "type": "address"
                },
                {
                    "indexed": true,
                    "internalType": "address",
                    "name": "approved",
                    "type": "address"
                },
                {
                    "indexed": true,
                    "internalType": "uint256",
                    "name": "tokenId",
                    "type": "uint256"
                }
            ],
            "name": "Approval",
            "type": "event"
        },
        {
            "anonymous": false,
            "inputs": [
                {
                    "indexed": true,
                    "internalType": "address",
                    "name": "owner",
                    "type": "address"
                },
                {
                    "indexed": true,
                    "internalType": "address",
                    "name": "operator",
                    "type": "address"
                },
                {
                    "indexed": false,
                    "internalType": "bool",
                    "name": "approved",
                    "type": "bool"
                }
            ],
            "name": "ApprovalForAll",
            "type": "event"
        },
        {
            "anonymous": false,
            "inputs": [
                {
                    "indexed": false,
                    "internalType": "uint256",
                    "name": "_fromTokenId",
                    "type": "uint256"
                },
                {
                    "indexed": false,
                    "internalType": "uint256",
                    "name": "_toTokenId",
                    "type": "uint256"
                }
            ],
            "name": "BatchMetadataUpdate",
            "type": "event"
        },
        {
            "anonymous": false,
            "inputs": [
                {
                    "indexed": true,
                    "internalType": "uint256",
                    "name": "tokenId",
                    "type": "uint256"
                },
                {
                    "indexed": true,
                    "internalType": "address",
                    "name": "recipient",
                    "type": "address"
                },
                {
                    "indexed": false,
                    "internalType": "string",
                    "name": "title",
                    "type": "string"
                },
                {
                    "indexed": false,
                    "internalType": "uint256",
                    "name": "openTimestamp",
                    "type": "uint256"
                }
            ],
            "name": "CapsuleCreated",
            "type": "event"
        },
        {
            "anonymous": false,
            "inputs": [
                {
                    "indexed": true,
                    "internalType": "uint256",
                    "name": "tokenId",
                    "type": "uint256"
                },
                {
                    "indexed": true,
                    "internalType": "address",
                    "name": "recipient",
                    "type": "address"
                }
            ],
            "name": "CapsuleOpened",
            "type": "event"
        },
        {
            "anonymous": false,
            "inputs": [
                {
                    "indexed": false,
                    "internalType": "uint256",
                    "name": "_tokenId",
                    "type": "uint256"
                }
            ],
            "name": "MetadataUpdate",
            "type": "event"
        },
        {
            "anonymous": false,
            "inputs": [
                {
                    "indexed": true,
                    "internalType": "address",
                    "name": "previousOwner",
                    "type": "address"
                },
                {
                    "indexed": true,
                    "internalType": "address",
                    "name": "newOwner",
                    "type": "address"
                }
            ],
            "name": "OwnershipTransferred",
            "type": "event"
        },
        {
            "anonymous": false,
            "inputs": [
                {
                    "indexed": true,
                    "internalType": "address",
                    "name": "from",
                    "type": "address"
                },
                {
                    "indexed": true,
                    "internalType": "address",
                    "name": "to",
                    "type": "address"
                },
                {
                    "indexed": true,
                    "internalType": "uint256",
                    "name": "tokenId",
                    "type": "uint256"
                }
            ],
            "name": "Transfer",
            "type": "event"
        },
        {
            "inputs": [
                {
                    "internalType": "address",
                    "name": "to",
                    "type": "address"
                },
                {
                    "internalType": "uint256",
                    "name": "tokenId",
                    "type": "uint256"
                }
            ],
            "name": "approve",
            "outputs": [],
            "stateMutability": "nonpayable",
            "type": "function"
        },
        {
            "inputs": [
                {
                    "internalType": "address",
                    "name": "owner",
                    "type": "address"
                }
            ],
            "name": "balanceOf",
            "outputs": [
                {
                    "internalType": "uint256",
                    "name": "",
                    "type": "uint256"
                }
            ],
            "stateMutability": "view",
            "type": "function"
        },
        {
            "inputs": [
                {
                    "internalType": "address",
                    "name": "_recipient",
                    "type": "address"
                },
                {
                    "internalType": "string",
                    "name": "_title",
                    "type": "string"
                },
                {
                    "internalType": "uint256",
                    "name": "_openTimestamp",
                    "type": "uint256"
                },
                {
                    "internalType": "string",
                    "name": "_tokenURI",
                    "type": "string"
                }
            ],
            "name": "createCapsule",
            "outputs": [
                {
                    "internalType": "uint256",
                    "name": "",
                    "type": "uint256"
                }
            ],
            "stateMutability": "nonpayable",
            "type": "function"
        },
        {
            "inputs": [
                {
                    "internalType": "uint256",
                    "name": "tokenId",
                    "type": "uint256"
                }
            ],
            "name": "getApproved",
            "outputs": [
                {
                    "internalType": "address",
                    "name": "",
                    "type": "address"
                }
            ],
            "stateMutability": "view",
            "type": "function"
        },
        {
            "inputs": [
                {
                    "internalType": "address",
                    "name": "owner",
                    "type": "address"
                },
                {
                    "internalType": "address",
                    "name": "operator",
                    "type": "address"
                }
            ],
            "name": "isApprovedForAll",
            "outputs": [
                {
                    "internalType": "bool",
                    "name": "",
                    "type": "bool"
                }
            ],
            "stateMutability": "view",
            "type": "function"
        },
        {
            "inputs": [],
            "name": "name",
            "outputs": [
                {
                    "internalType": "string",
                    "name": "",
                    "type": "string"
                }
            ],
            "stateMutability": "view",
            "type": "function"
        },
        {
            "inputs": [
                {
                    "internalType": "uint256",
                    "name": "_tokenId",
                    "type": "uint256"
                }
            ],
            "name": "openCapsule",
            "outputs": [],
            "stateMutability": "nonpayable",
            "type": "function"
        },
        {
            "inputs": [],
            "name": "owner",
            "outputs": [
                {
                    "internalType": "address",
                    "name": "",
                    "type": "address"
                }
            ],
            "stateMutability": "view",
            "type": "function"
        },
        {
            "inputs": [
                {
                    "internalType": "uint256",
                    "name": "tokenId",
                    "type": "uint256"
                }
            ],
            "name": "ownerOf",
            "outputs": [
                {
                    "internalType": "address",
                    "name": "",
                    "type": "address"
                }
            ],
            "stateMutability": "view",
            "type": "function"
        },
        {
            "inputs": [],
            "name": "renounceOwnership",
            "outputs": [],
            "stateMutability": "nonpayable",
            "type": "function"
        },
        {
            "inputs": [
                {
                    "internalType": "address",
                    "name": "from",
                    "type": "address"
                },
                {
                    "internalType": "address",
                    "name": "to",
                    "type": "address"
                },
                {
                    "internalType": "uint256",
                    "name": "tokenId",
                    "type": "uint256"
                }
            ],
            "name": "safeTransferFrom",
            "outputs": [],
            "stateMutability": "nonpayable",
            "type": "function"
        },
        {
            "inputs": [
                {
                    "internalType": "address",
                    "name": "from",
                    "type": "address"
                },
                {
                    "internalType": "address",
                    "name": "to",
                    "type": "address"
                },
                {
                    "internalType": "uint256",
                    "name": "tokenId",
                    "type": "uint256"
                },
                {
                    "internalType": "bytes",
                    "name": "data",
                    "type": "bytes"
                }
            ],
            "name": "safeTransferFrom",
            "outputs": [],
            "stateMutability": "nonpayable",
            "type": "function"
        },
        {
            "inputs": [
                {
                    "internalType": "address",
                    "name": "operator",
                    "type": "address"
                },
                {
                    "internalType": "bool",
                    "name": "approved",
                    "type": "bool"
                }
            ],
            "name": "setApprovalForAll",
            "outputs": [],
            "stateMutability": "nonpayable",
            "type": "function"
        },
        {
            "inputs": [
                {
                    "internalType": "uint256",
                    "name": "tokenId",
                    "type": "uint256"
                },
                {
                    "internalType": "string",
                    "name": "_tokenURI",
                    "type": "string"
                }
            ],
            "name": "setTokenURI",
            "outputs": [],
            "stateMutability": "nonpayable",
            "type": "function"
        },
        {
            "inputs": [
                {
                    "internalType": "bytes4",
                    "name": "interfaceId",
                    "type": "bytes4"
                }
            ],
            "name": "supportsInterface",
            "outputs": [
                {
                    "internalType": "bool",
                    "name": "",
                    "type": "bool"
                }
            ],
            "stateMutability": "view",
            "type": "function"
        },
        {
            "inputs": [],
            "name": "symbol",
            "outputs": [
                {
                    "internalType": "string",
                    "name": "",
                    "type": "string"
                }
            ],
            "stateMutability": "view",
            "type": "function"
        },
        {
            "inputs": [
                {
                    "internalType": "uint256",
                    "name": "",
                    "type": "uint256"
                }
            ],
            "name": "timeCapsules",
            "outputs": [
                {
                    "internalType": "address",
                    "name": "recipient",
                    "type": "address"
                },
                {
                    "internalType": "string",
                    "name": "title",
                    "type": "string"
                },
                {
                    "internalType": "uint256",
                    "name": "openTimestamp",
                    "type": "uint256"
                },
                {
                    "internalType": "bool",
                    "name": "isOpen",
                    "type": "bool"
                }
            ],
            "stateMutability": "view",
            "type": "function"
        },
        {
            "inputs": [
                {
                    "internalType": "uint256",
                    "name": "tokenId",
                    "type": "uint256"
                }
            ],
            "name": "tokenURI",
            "outputs": [
                {
                    "internalType": "string",
                    "name": "",
                    "type": "string"
                }
            ],
            "stateMutability": "view",
            "type": "function"
        },
        {
            "inputs": [
                {
                    "internalType": "address",
                    "name": "from",
                    "type": "address"
                },
                {
                    "internalType": "address",
                    "name": "to",
                    "type": "address"
                },
                {
                    "internalType": "uint256",
                    "name": "tokenId",
                    "type": "uint256"
                }
            ],
            "name": "transferFrom",
            "outputs": [],
            "stateMutability": "nonpayable",
            "type": "function"
        },
        {
            "inputs": [
                {
                    "internalType": "address",
                    "name": "newOwner",
                    "type": "address"
                }
            ],
            "name": "transferOwnership",
            "outputs": [],
            "stateMutability": "nonpayable",
            "type": "function"
        }
    ],
    "bytecode": "608060405234610382576118a56020813803918261001c81610386565b93849283398101031261038257516001600160a01b03811690819003610382576100466040610386565b90600b82526a54696d6543617073756c6560a81b60208301526100696040610386565b60048152630544341560e41b602082015282519091906001600160401b038111610296575f54600181811c91168015610378575b602082101461027857601f8111610316575b506020601f82116001146102b557819293945f926102aa575b50508160011b915f199060031b1c1916175f555b81516001600160401b03811161029657600154600181811c9116801561028c575b602082101461027857601f8111610215575b50602092601f82116001146101b457928192935f926101a9575b50508160011b915f199060031b1c1916176001555b801561019657600780546001600160a01b03198116831790915560405191906001600160a01b03167f8be0079c531659141344cd1fd0a4f28419497f9722a3daafe3b4186f6b6457e05f80a36114f990816103ac8239f35b631e4fbdf760e01b5f525f60045260245ffd5b015190505f80610129565b601f1982169360015f52805f20915f5b8681106101fd57508360019596106101e5575b505050811b0160015561013e565b01515f1960f88460031b161c191690555f80806101d7565b919260206001819286850151815501940192016101c4565b60015f527fb10e2d527612073b26eecdfd717e6a320cf44b4afac2b0732d9fcbe2b7fa0cf6601f830160051c8101916020841061026e575b601f0160051c01905b818110610263575061010f565b5f8155600101610256565b909150819061024d565b634e487b7160e01b5f52602260045260245ffd5b90607f16906100fd565b634e487b7160e01b5f52604160045260245ffd5b015190505f806100c8565b601f198216905f8052805f20915f5b8181106102fe575095836001959697106102e6575b505050811b015f556100dc565b01515f1960f88460031b161c191690555f80806102d9565b9192602060018192868b0151815501940192016102c4565b5f80527f290decd9548b62a8d60345a988386fc84ba6bc95484008f6362f93160ef3e563601f830160051c8101916020841061036e575b601f0160051c01905b81811061036357506100af565b5f8155600101610356565b909150819061034d565b90607f169061009d565b5f80fd5b6040519190601f01601f191682016001600160401b038111838210176102965760405256fe6080806040526004361015610012575f80fd5b5f3560e01c90816301ffc9a714610da75750806306fdde0314610d05578063081812fc14610cc9578063095ea7b314610bdf578063162094c414610b9b57806323b872dd14610b8457806342842e0e14610b555780635c18e55c1461082e5780636352211e146107fe57806370a08231146107ad578063715018a6146107525780637a16de75146106df5780638da5cb5b146106b757806395d89b41146105ed578063a22cb46514610549578063b88d4fde146104db578063c4da973414610210578063c87b56dd146101d9578063e985e9c5146101825763f2fde38b146100f8575f80fd5b3461017e57602036600319011261017e57610111610e50565b6101196111e1565b6001600160a01b0316801561016b57600780546001600160a01b0319811683179091556001600160a01b03167f8be0079c531659141344cd1fd0a4f28419497f9722a3daafe3b4186f6b6457e05f80a3005b631e4fbdf760e01b5f525f60045260245ffd5b5f80fd5b3461017e57604036600319011261017e5761019b610e50565b6101a3610e66565b9060018060a01b03165f52600560205260405f209060018060a01b03165f52602052602060ff60405f2054166040519015158152f35b3461017e57602036600319011261017e5761020c6101f8600435611493565b604051918291602083526020830190610e2c565b0390f35b3461017e57608036600319011261017e57610229610e50565b60243567ffffffffffffffff811161017e57610249903690600401610ef0565b906044359060643567ffffffffffffffff811161017e5761026e903690600401610ef0565b916102776111e1565b6008545f1981146104c75760016102949101938460085584611208565b604051916080830183811067ffffffffffffffff8211176104b35760409081526001600160a01b0391821680855260208086018881528684018681525f606089018181528a8252600990945294909420965187546001600160a01b0319169516949094178655925180519195939291600185019167ffffffffffffffff82116104b3576103218354610f48565b601f811161046e575b5091602099959391899795938b90601f83116001146103db57937f52123f5d858f84e2b97af25fb8d16a9b34b5efad3f2ec70bf6283761224bbcd7989693836003946103c09a98946103ac985f926103d0575b50508160011b915f1990871b1c19161790555b51600284015551151591019060ff801983541691151516179055565b604051928392604084526040840190610e2c565b90888301520390a3604051908152f35b015190505f8061037d565b90601f19831691845f52815f20925f5b8181106104545750846103c09a98946103ac98947f52123f5d858f84e2b97af25fb8d16a9b34b5efad3f2ec70bf6283761224bbcd79d9b98946003986001951061043d575b505050811b019055610390565b01515f1983891b60f8161c191690555f8080610430565b8383015185558e9c50600190940193928f01928f016103eb565b835f5260205f20601f840160051c810191602085106104a9575b601f0160051c01905b81811061049e575061032a565b5f8155600101610491565b9091508190610488565b634e487b7160e01b5f52604160045260245ffd5b634e487b7160e01b5f52601160045260245ffd5b3461017e57608036600319011261017e576104f4610e50565b6104fc610e66565b906044356064359267ffffffffffffffff841161017e573660238501121561017e57610535610547943690602481600401359101610eba565b92610541838383611020565b3361136f565b005b3461017e57604036600319011261017e57610562610e50565b602435908115159081830361017e576001600160a01b03169182156105da576105ac90335f52600560205260405f20845f5260205260405f209060ff801983541691151516179055565b6040519081527f17307eab39ab6107e8899845ad3d59bd9653f200f220920489ca2b5937696c3160203392a3005b82630b61174360e31b5f5260045260245ffd5b3461017e575f36600319011261017e576040515f60015461060d81610f48565b80845290600181169081156106935750600114610635575b61020c836101f881850382610e7c565b60015f9081527fb10e2d527612073b26eecdfd717e6a320cf44b4afac2b0732d9fcbe2b7fa0cf6939250905b808210610679575090915081016020016101f8610625565b919260018160209254838588010152019101909291610661565b60ff191660208086019190915291151560051b840190910191506101f89050610625565b3461017e575f36600319011261017e576007546040516001600160a01b039091168152602090f35b3461017e57602036600319011261017e576004355f90815260096020526040902080546001600160a01b031661071760018301610f80565b9160ff60036002830154920154166107416040519485948552608060208601526080850190610e2c565b916040840152151560608301520390f35b3461017e575f36600319011261017e5761076a6111e1565b600780546001600160a01b031981169091555f906001600160a01b03167f8be0079c531659141344cd1fd0a4f28419497f9722a3daafe3b4186f6b6457e08280a3005b3461017e57602036600319011261017e576001600160a01b036107ce610e50565b1680156107eb575f526003602052602060405f2054604051908152f35b6322718ad960e21b5f525f60045260245ffd5b3461017e57602036600319011261017e57602061081c6004356111ad565b6040516001600160a01b039091168152f35b3461017e57602036600319011261017e57600435805f52600960205260405f2060038101805460ff8116610b105760028301544210610acb5760ff1916600117905580546040516001600160a01b03919091169060209061088f8282610e7c565b5f81528215610ab8575f8581526002835260409020546001600160a01b03168015159081610a87575b5f8581526003855260408082208054600101905588825260028652812080546001600160a01b0319166001600160a01b0388161790558790869083907fddf252ad1be2c89b69c2b068fc378daa952ba7f163c4a11628f55a4df523b3ef9080a450610a7457823b61095a575b505090546001600160a01b03169190507f7d3112e72b789ad7c63705ec623a9760c64dd2b02125a7a8d5e96d252c4009f65f80a3005b816109999160409694969593955180938192630a85bd0160e11b83523360048401525f6024840152876044840152608060648401526084830190610e2c565b03815f895af15f9181610a34575b506109fc575050503d5f146109f5573d6109c081610e9e565b906109ce6040519283610e7c565b81523d5f8383013e5b805191826109f25783633250574960e11b5f5260045260245ffd5b01fd5b60606109d7565b9193909250906001600160e01b03191663757a42ff60e11b01610a225750828080610924565b633250574960e11b5f5260045260245ffd5b9091508481813d8311610a6d575b610a4c8183610e7c565b8101031261017e57516001600160e01b03198116810361017e5790866109a7565b503d610a42565b6339e3563760e11b5f525f60045260245ffd5b5f8781526004602052604080822080546001600160a01b031916905582825260038652902080545f190190556108b8565b633250574960e11b5f525f60045260245ffd5b60405162461bcd60e51b815260206004820152601f60248201527f54696d6543617073756c653a2049742773206e6f742074696d65207965742e006044820152606490fd5b60405162461bcd60e51b815260206004820152601c60248201527f54696d6543617073756c653a20416c7265616479206f70656e65642e000000006044820152606490fd5b3461017e57610547610b6636610f0e565b9060405192610b76602085610e7c565b5f8452610541838383611020565b3461017e57610547610b9536610f0e565b91611020565b3461017e57604036600319011261017e5760243567ffffffffffffffff811161017e57610bcf610547913690600401610ef0565b610bd76111e1565b600435611208565b3461017e57604036600319011261017e57610bf8610e50565b602435610c04816111ad565b33151580610cb6575b80610c89575b610c765781906001600160a01b0384811691167f8c5be1e5ebec7d5bd14f71427d1e84f3dd0314c0f7b2291e5b200ac8c7c3b9255f80a45f90815260046020526040902080546001600160a01b0319166001600160a01b03909216919091179055005b63a9fbf51f60e01b5f523360045260245ffd5b506001600160a01b0381165f90815260056020908152604080832033845290915290205460ff1615610c13565b506001600160a01b038116331415610c0d565b3461017e57602036600319011261017e57600435610ce6816111ad565b505f526004602052602060018060a01b0360405f205416604051908152f35b3461017e575f36600319011261017e576040515f5f54610d2481610f48565b80845290600181169081156106935750600114610d4b5761020c836101f881850382610e7c565b5f8080527f290decd9548b62a8d60345a988386fc84ba6bc95484008f6362f93160ef3e563939250905b808210610d8d575090915081016020016101f8610625565b919260018160209254838588010152019101909291610d75565b3461017e57602036600319011261017e576004359063ffffffff60e01b821680920361017e57602091632483248360e11b8114908115610de9575b5015158152f35b6380ac58cd60e01b811491508115610e1b575b8115610e0a575b5083610de2565b6301ffc9a760e01b14905083610e03565b635b5e139f60e01b81149150610dfc565b805180835260209291819084018484015e5f828201840152601f01601f1916010190565b600435906001600160a01b038216820361017e57565b602435906001600160a01b038216820361017e57565b90601f8019910116810190811067ffffffffffffffff8211176104b357604052565b67ffffffffffffffff81116104b357601f01601f191660200190565b929192610ec682610e9e565b91610ed46040519384610e7c565b82948184528183011161017e578281602093845f960137010152565b9080601f8301121561017e57816020610f0b93359101610eba565b90565b606090600319011261017e576004356001600160a01b038116810361017e57906024356001600160a01b038116810361017e579060443590565b90600182811c92168015610f76575b6020831014610f6257565b634e487b7160e01b5f52602260045260245ffd5b91607f1691610f57565b9060405191825f825492610f9384610f48565b8084529360018116908115610ffe5750600114610fba575b50610fb892500383610e7c565b565b90505f9291925260205f20905f915b818310610fe2575050906020610fb8928201015f610fab565b6020919350806001915483858901015201910190918492610fc9565b905060209250610fb894915060ff191682840152151560051b8201015f610fab565b6001600160a01b0390911691908215610ab8575f828152600260205260409020546001600160a01b031692829033151580611118575b50846110e5575b805f52600360205260405f2060018154019055815f52600260205260405f20816bffffffffffffffffffffffff60a01b825416179055847fddf252ad1be2c89b69c2b068fc378daa952ba7f163c4a11628f55a4df523b3ef5f80a46001600160a01b03168083036110cd57505050565b6364283d7b60e01b5f5260045260245260445260645ffd5b5f82815260046020526040902080546001600160a01b0319169055845f52600360205260405f205f19815401905561105d565b9091508061115c575b1561112e5782905f611056565b828461114657637e27328960e01b5f5260045260245ffd5b63177e802f60e01b5f523360045260245260445ffd5b50338414801561118b575b8061112157505f838152600460205260409020546001600160a01b03163314611121565b505f84815260056020908152604080832033845290915290205460ff16611167565b5f818152600260205260409020546001600160a01b03169081156111cf575090565b637e27328960e01b5f5260045260245ffd5b6007546001600160a01b031633036111f557565b63118cdaa760e01b5f523360045260245ffd5b919091805f52600660205260405f20835167ffffffffffffffff81116104b3576112328254610f48565b601f811161132a575b506020601f82116001146112a257908060209493927ff8e1a15aba9398e019f0b49df1a4fde98ee17ae345cb5f6b5e2c27f5033e8ce796975f92611297575b50508160011b915f199060031b1c19161790555b604051908152a1565b015190505f8061127a565b601f19821695835f52815f20965f5b818110611312575096600192849260209796957ff8e1a15aba9398e019f0b49df1a4fde98ee17ae345cb5f6b5e2c27f5033e8ce7999a106112fa575b505050811b01905561128e565b01515f1960f88460031b161c191690555f80806112ed565b838301518955600190980197602093840193016112b1565b825f5260205f20601f830160051c81019160208410611365575b601f0160051c01905b81811061135a575061123b565b5f815560010161134d565b9091508190611344565b823b61137d575b5050505050565b604051630a85bd0160e11b81526001600160a01b0391821660048201529181166024830152604482019390935260806064820152911691602090829081906113c9906084830190610e2c565b03815f865af15f918161144e575b5061142c57503d15611425573d6113ed81610e9e565b906113fb6040519283610e7c565b81523d5f602083013e5b805190816114205782633250574960e11b5f5260045260245ffd5b602001fd5b6060611405565b6001600160e01b03191663757a42ff60e11b01610a2257505f80808080611376565b9091506020813d60201161148b575b8161146a60209383610e7c565b8101031261017e57516001600160e01b03198116810361017e57905f6113d7565b3d915061145d565b61149c816111ad565b505f5260066020526114b060405f20610f80565b5f6040516114bf602082610e7c565b529056fea2646970667358221220822163c4e11dc767f0049f1ed188c78505630ad1db4ead280e5b556c49a7eb6764736f6c634300081e0033",
    "sourcePath": "/Users/reproducepark/workspace/web3/web3.sol",
    "compiler": {
        "name": "solc",
        "version": "0.8.30+commit.73712a01"
    },
    "functionHashes": {
        "approve(address,uint256)": "095ea7b3",
        "balanceOf(address)": "70a08231",
        "createCapsule(address,string,uint256,string)": "c4da9734",
        "getApproved(uint256)": "081812fc",
        "isApprovedForAll(address,address)": "e985e9c5",
        "name()": "06fdde03",
        "openCapsule(uint256)": "5c18e55c",
        "owner()": "8da5cb5b",
        "ownerOf(uint256)": "6352211e",
        "renounceOwnership()": "715018a6",
        "safeTransferFrom(address,address,uint256)": "42842e0e",
        "safeTransferFrom(address,address,uint256,bytes)": "b88d4fde",
        "setApprovalForAll(address,bool)": "a22cb465",
        "setTokenURI(uint256,string)": "162094c4",
        "supportsInterface(bytes4)": "01ffc9a7",
        "symbol()": "95d89b41",
        "timeCapsules(uint256)": "7a16de75",
        "tokenURI(uint256)": "c87b56dd",
        "transferFrom(address,address,uint256)": "23b872dd",
        "transferOwnership(address)": "f2fde38b"
    },
    "gasEstimates": {
        "creation": {
            "codeDepositCost": "1073800",
            "executionCost": "infinite",
            "totalCost": "infinite"
        },
        "external": {
            "approve(address,uint256)": "31146",
            "balanceOf(address)": "2623",
            "createCapsule(address,string,uint256,string)": "infinite",
            "getApproved(uint256)": "4625",
            "isApprovedForAll(address,address)": "2969",
            "name()": "infinite",
            "openCapsule(uint256)": "infinite",
            "owner()": "2544",
            "ownerOf(uint256)": "2594",
            "renounceOwnership()": "28280",
            "safeTransferFrom(address,address,uint256)": "infinite",
            "safeTransferFrom(address,address,uint256,bytes)": "infinite",
            "setApprovalForAll(address,bool)": "26757",
            "setTokenURI(uint256,string)": "infinite",
            "supportsInterface(bytes4)": "379",
            "symbol()": "infinite",
            "timeCapsules(uint256)": "infinite",
            "tokenURI(uint256)": "infinite",
            "transferFrom(address,address,uint256)": "106367",
            "transferOwnership(address)": "28586"
        },
        "internal": {
            "_baseURI()": "infinite"
        }
    }
}